:100000000A128A11DB2FFF1B0D2883137F18831719
:100010000008840A0319FF0A080000308A00040857
:10002000840A82070034543465346E347434653481
:1000300020346E346F34763461346D3465346E340C
:100040007434653400345034613472346134203493
:1000500063346F346D346534633461347234213405
:1000600000345034723465347334733469346F340B
:100070006E346534203452344234313400345634D2
:1000800065346E346334653475342E342034523420
:100090004234313400345034613472346134623467
:1000A00065346E34733421340034203420342034E9
:1000B00070346F346E3474346F34733421342034BC
:1000C0005234423431340034003483120313A2001A
:1000D0002208840083170008F000840A0008F10059
:1000E000220884000008F700840A0008F8002208AB
:1000F000043E84000008F900840A0008FA0077082A
:100100007907FB0078080318780A7A07FC007B0857
:10011000FF3EF2007C080318013EFF3EF3000A1286
:100120008A11AA21710883120313A1007008A0008C
:100130002008083E2207F70077088400831700088C
:1001400008000030FC000030FB000030FA000030F6
:10015000F900701CBF287408F9077508031103180B
:10016000013E031DFA07760803110318013E031D23
:10017000FB07770803110318013E031DFC0701303C
:10018000F8000310F40DF50DF60DF70DF80BC1286E
:1001900001300310F30CF20CF10CF00CFF3E031DC8
:1001A000C9287308720471047004031DA9287C080F
:1001B000F3007B08F2007A08F1007908F0000800EB
:1001C000F200831203138711F3010830730203183E
:1001D0000F297208F0007303FF3A073E013EF22830
:1001E0000310F00CFF3E031DF02870080139F100E8
:1001F000F10E07087106EF397106870087150A129C
:100200008A1592250A128A1183120313871101306D
:10021000F0007008F30708307302031CE928071682
:100220000A128A1592250A128A118312031387155E
:100230000A128A15922583120313871108000A12E5
:100240008A1178250A128A1183120313A001A101D1
:10025000A201A3012308803AFF0080307F02031D22
:1002600033290830220203185C2983120313220861
:10027000553E840083130008F90022085F3E840085
:1002800000087907FA00FB01FB0D7A08A0070318A4
:10029000A10A7B08A1070130A2070318A30A0030B6
:1002A000A3072308803AFF0080307F02031D5A29EC
:1002B00008302202031C3529831203132108F80099
:1002C0002008F7000800831203136C08F3006B0882
:1002D000F2006A08F1006908F0004130F700C6300A
:1002E000F6004E30F5006D30F4000A128A11A1209C
:1002F0000A128A11730883120313EC007208EB00D0
:100300007108EA007008E9003930E9073030031855
:100310003130EA07003003180130EB0700300318D2
:100320000130EC076908A2006A08A3006B08A4006A
:100330006C08A5001030A600250DA50CA40CA30C7C
:10034000A20CA60B9C29FF302205A0007F302305BC
:10035000A1000800F601F31FB429F209F309F20A1B
:100360000319F30AF601F60AF11FBB29F009F10996
:10037000F00A0319F10A700871040319E829F5015C
:10038000F50AF11BCF2901300310F00DF10DFF3EEE
:10039000031DC4290130F4007408F507C129710850
:1003A0007302031DD52970087202031CDD29700831
:1003B000F2027108031CF303F30201300310F10C85
:1003C000F00CFF3E031DDE290130F502031DCF298D
:1003D00076080319F029F209F309F20A0319F30A5E
:1003E0007308F1007208F0000800F200F3018312B4
:1003F00003138711831603130716831203130716BB
:10040000F401083074020318272A87150A128A1586
:1004100092250A128A1183120313070E0139F00084
:100420007403FF3A073E013E172A0310F00DFF3E0A
:10043000031D152A7008F1007108F30487110130BB
:10044000F0007008F40708307402031C052A8316B4
:100450000313071272080319312A831203130712B8
:10046000342A8312031307160A128A1592250A12D8
:100470008A118312031387150A128A159225831293
:1004800003138711730808008312031389100911DD
:100490001430F0000030F1000A128A1577260A1293
:1004A0008A1183120313891438300A128A159A2686
:1004B0000A128A110530F0000030F1000A128A1584
:1004C00077260A128A1138300A128A159A260A12D9
:1004D0008A110130F0000030F1000A128A157726E7
:1004E0000A128A1138300A128A159A260A128A11BB
:1004F00008300A128A159A260A128A110F300A1237
:100500008A159A260A128A1101300A128A159A2629
:100510000A128A1138300A128A159A260A128A118A
:1005200080300A128A159A260800FC007C08840094
:1005300083170008F000840A0008F1007C08043EDC
:1005400084000008F200840A0008F3000A128A11ED
:10055000AA210A128A117108FB007008FA007C08AF
:10056000840083170008F000840A0008F1007C086A
:10057000043E84000008F800840A0008F9007808A6
:10058000013EF20079080318013E003EF3000A1212
:100590008A11AA217C08043E840070088317800019
:1005A000840A710880007708F8007A08083E7C0702
:1005B000F90079088400780880007C08023E8400F5
:1005C00001308007840A0318800A0800831203138D
:1005D000AF000A128A1163210A128A1101308312B4
:1005E00003132005AB0000302105AC000A128A116C
:1005F00063210A128A110F30831203132005AD0004
:1006000000302105AE002D08A7002708F0002B08B8
:100610000A128A15AF250A128A1183120313A80041
:100620002808FC002F080A128A156B270A128A1163
:100630007C087D0403191F2B83120313E92A02305F
:1006400083120313A7002B08A80003300310A80D82
:10065000FF3E031D262B0310280D2F07A9002D0890
:100660002907AA002A0884002708831780000800A9
:10067000F601F11F422BF009F109F00A0319F10A02
:10068000F601F60AF31F4D2BF209F309F20A0319DA
:10069000F30A0130F4007408F606F701F801700857
:1006A00071040319842BF501F50AF11B632B01304A
:1006B0000310F00DF10DFF3E031D582B0130F40027
:1006C0007408F507552B01300310F70DF80DFF3EA8
:1006D000031D642B71087302031D702B70087202D6
:1006E000031C792B7008F2027108031CF303F30258
:1006F000771401300310F10CF00CFF3E031D7A2B30
:100700000130F502031D632B760803198C2BF709C2
:10071000F809F70A0319F80A7808F1007708F000D9
:10072000080083120313A7002708203E0A128A112B
:1007300065200A128A1183120313A3002308A6005E
:10074000AA01AB012B08803AFF0080307F02031D15
:10075000AB2B02302A020318080083120313A801EE
:10076000A901DE2B203083120313CA2B2808A30013
:100770002308F0002A080A128A15AF250A128A11E6
:10078000831203132606031DC72B2A30CA2B2B30D6
:10079000CA2B7830A3002A0EF0392A077D07A4005F
:1007A00028082407A5002508840023088313800057
:1007B0000130A8070318A90A0030A9072908803AC0
:1007C000FF0080307F02031DE72B10302802031842
:1007D000092C831203132A08A30003300310A30D6E
:1007E000FF3E031DEE2B0310230D2707A40028084E
:1007F0002407A5002508840083170008003A031980
:10080000B22B013A0319B62B033A0319C92BD82B83
:10081000D82B831203132A0EF0392A077D07A30071
:100820002308103E8400831380010130AA070318B7
:10083000AB0A0030AB07A22B83120313B7000A12D6
:100840008A111F210A128A117808FD007708FC001E
:100850000A128A159B250A128A118312031337087C
:10086000203E0A128A1518260A128A1183120313CF
:10087000B301B4013408803AFF0080307F02031DC9
:10088000432C0230330203188D2C83120313B5015D
:10089000B6013608803AFF0080307F02031D522CDB
:1008A0001030350203187A2C831203133308B0007A
:1008B00003300310B00DFF3E031D592C0310300D03
:1008C0003707B10035083107B200320884008317BA
:1008D00080010130B5070318B60A0030B6073608A4
:1008E000803AFF0080307F02031D782C10303502E3
:1008F000031C542C013083120313B3070318B40AEA
:100900000030B4073408803AFF0080307F02031DB6
:100910008B2C02303302031C452C8312031337083F
:10092000493E840083178001F00100300A128A15C5
:10093000AF250A128A1183120313B0003008FD009C
:1009400037080A128A153C270A128A1183120313E8
:1009500037080A128A11E622080083120313B7002F
:100960003708203E0A128A1165200A128A11831262
:100970000313B1003108B400E22CFC01FF30B100D8
:100980003108FD0036080A128A15BE260A128A119D
:1009900083120313B2003208E02CFC01FC0AFD01B3
:1009A000D42CFC01FD01FD0A36080A128A15BE2668
:1009B0000A128A1183120313DE2C3408B1003108A5
:1009C000B600ED2C3008003A0319BD2C013A03198A
:1009D000CD2C033A0319D12CDD2C3708203E0A1206
:1009E0008A1534260A128A1183120313B1003108C2
:1009F000B5003608B1003108FC0037080A128A1524
:100A00006B270A128A117C087D040319142D8312A6
:100A10000313360835060319142D3708493E8400A0
:100A200083178001800A0800831203133608B1007F
:100A30003108FC0037080A128A159B270A128A110E
:100A40007C087D04031D592D831203133708203EB3
:100A50000A128A15CC270A128A1183120313350849
:100A60000A128A15F6250A128A1183120313B1009D
:100A700003300310B10DFF3E031D392D0310310D5E
:100A80003707B20035080A128A1577250A128A112B
:100A9000831203133207B3003308840083178001E5
:100AA0003608B1003108FD0037080A128A153C27C4
:100AB0000800831203133608B1003108FD0037081F
:100AC0000A128A153C270A128A1183120313370867
:100AD0000A128A1510270A128A1170087104031D60
:100AE00008008312031337080A128A11E62208004D
:100AF0000A128A15D6250A128A11D0300A128A11D2
:100B0000E0200A128A1100300A128A11E0200A122B
:100B10008A110A128A15D6250A128A11D1300A12B0
:100B20008A11E0200A128A1101300A128A11F52175
:100B30000A128A117F39F5007508F6003A30F5007F
:100B4000750883120313E40076080A128A15BB2580
:100B50000A128A11F500750883120313E50076085E
:100B60000A128A157F250A128A11F5007508831268
:100B70000313E600E70101300A128A11F5210A1277
:100B80008A117F39F5007508F6003A30F5007508CE
:100B900083120313E10076080A128A15BB250A1294
:100BA0008A11F500750883120313E20076080A1211
:100BB0008A157F250A128A11F5007508831203131E
:100BC000E30001300A128A11F5210A128A113F3915
:100BD000F5007508F60076080A128A15BB250A1278
:100BE0008A11F500750883120313DF0076080A12D4
:100BF0008A157F250A128A11F500750883120313DE
:100C0000E00001300A128A11F5210A128A1101301E
:100C10000A128A11F5210A128A113F39F500750866
:100C2000F60076080A128A15BB250A128A11F50009
:100C3000750883120313D50076080A128A157F25DA
:100C40000A128A11F500750883120313D6000130C9
:100C50000A128A11F5210A128A111F39F500750846
:100C6000F6002F30F500750883120313D7007608BD
:100C70000A128A15BB250A128A11F500750883121B
:100C80000313D80076080A128A157F250A128A11E2
:100C9000F500750883120313D90000300A128A1177
:100CA000F5210A128A11F5007508F6002F30F500BB
:100CB000750883120313DA0076080A128A15BB2519
:100CC0000A128A11F500750883120313DB007608F7
:100CD0000A128A157F250A128A11F50075088312F7
:100CE0000313DC00DD010A128A15E62508004130F5
:100CF0008400C23083120313B8000408B900103016
:100D0000BA003808840083130008BB00B80A390809
:100D100084003B088000B90ABA0B812E013083168B
:100D200003138700880189010F309F0085163F302B
:100D300086000A128A1144220A128A1101300A120C
:100D40008A159A260A128A1180300A128A159A2662
:100D50000A128A111F30F2008030F3000A128A153D
:100D6000E6260A128A11C0300A128A159A260A1239
:100D70008A111130F2008030F3000A128A15E6263B
:100D80000A128A11831203138618C22E90300A1297
:100D90008A111C240A128A11A03083120313B8008E
:100DA0003808FD0090300A128A1191230A128A1124
:100DB00001300A128A159A260A128A1180300A1204
:100DC0008A159A260A128A11A030F2000030F30028
:100DD0000A128A15E6260A128A11C0300A128A15EA
:100DE0009A260A128A11B130F2000030F3000A127A
:100DF0008A15E6260A128A1190300A128A1555269B
:100E00000A128A117B087C04031D572F83120313D7
:100E1000060CB800380C0139B900BA010310B90D3D
:100E2000BA0D0310B90DBA0D060C0139BB00BC0197
:100E30000310BB0DBC0D060801393B07BD003C0883
:100E400003183C0ABE0039083D07BF003A080318E2
:100E50003A0A3E07C0003F08D3004008D4000730DC
:100E6000530654040319062F063053065404031D79
:100E70003C2FD301D4014C2F053053065404031DDD
:100E8000432F0130492F033053065404031D4C2FC8
:100E90000230D3000030D4005308B8003808B00046
:100EA00090300A128A11AD240A128A11CC2E903089
:100EB0000A128A1510270A128A1170087104031980
:100EC0007E2F01300A128A159A260A128A11803062
:100ED0000A128A159A260A128A113930F2008030D5
:100EE000F3000A128A15E6260A128A11C0300A1285
:100EF0008A159A260A128A112D30CE2F01300A1235
:100F00008A159A260A128A1180300A128A159A26A0
:100F10000A128A1190300A128A15A4250A128A111F
:100F2000710883120313D2007008D1000A30F00058
:100F30000030F1005208F3005108F2000A128A1141
:100F400038230A128A117008303E83120313B80046
:100F50003808C1000A30F0000030F1005208F300F8
:100F60005108F2000A128A11AA210A128A11700885
:100F7000303E83120313B8003808C2004130F2003B
:100F80000030F3000A128A15E6260A128A11C030D0
:100F90000A128A159A260A128A110130F20080304C
:100FA000F3000A128A15E6260A128A118312031325
:100FB000861CC62ED62F8313D230FD000030FE00D3
:100FC0005530FF00C23084000A128A150B260A121F
:100FD0008A116D30FD000D30FE007B30FF0069305E
:100FE00084000A128A150B260A128A1155308400D1
:100FF00069300A128A158A2583010A128A11772E0E
:101AEE00F00070080F39080001340034003400345F
:101AFE00F00070080F39303E0800F00070088312B5
:101B0E0003138800080064008001840A0406031988
:101B1E00003404068B2D00000000000000000000C1
:101B2E0000000000000008007C0883120313E90087
:101B3E007D08EA00EB01EC010800F3007308223E79
:101B4E00840083170008F000840A0008F1000800E2
:101B5E00F2007208F10004300310F10DFF3E031D78
:101B6E00B32D700871070800F1007108F000043001
:101B7E000310F00CFF3E031DBF2D70080F39303ED1
:101B8E000800F10083120313891471080A128A15D2
:101B9E0084258312031309158910891408008312F2
:101BAE000313871507160A128A1592250A128A152B
:101BBE008312031307120A128A1592250800831244
:101BCE000313871507120A128A1592250A128A150F
:101BDE008312031307160A128A1592250800FB00BA
:101BEE001030F0000030F1007B08F900FA0179089E
:101BFE00F2007A08F3000A128A11382370080800DE
:101C0E007E088A007F08820007260A128A15800045
:101C1E00840A04087D0603190034FF0A0319FE0A1C
:101C2E000B2EF00070088400213083178000840A88
:101C3E00003080007008023E84008001840A80011A
:101C4E007008063E84008001840A80017008043EFC
:101C5E0084008001840A80010800FA007A0884005A
:101C6E0083170008F000840A0008F1007A08063E87
:101C7E0084000008F200840A0008F3000A128A1198
:101C8E00AA217108F9007008F8007808083E7A0752
:101C9E00F7007708840083170008080083120313E7
:101CAE00A300A201A20A23080A128A1510270A12FB
:101CBE008A1570087104031D6D2E831203132308F9
:101CCE00493E8400831700080319A20183120313EF
:101CDE002208A000A1012008FB002108FC0008003A
:101CEE00F301F40171087402031D7F2E7008730254
:101CFE0003180800F501C83075020318932E000072
:101D0E0000000000000000000130F2007208F5072C
:101D1E00C8307502031C862E0130F3070318F40A2F
:101D2E000030F407792EF600831203138914760817
:101D3E000A128A1584250A128A15831203130911B1
:101D4E000330F0000030F1000A128A1577260A12CD
:101D5E008A158312031389100330F0000030F1004E
:101D6E000A128A1577268312031389140800831228
:101D7E000313A30023080A128A15F6250A128A15E0
:101D8E007C07023E013983120313A0002008A10034
:101D9E0023080A128A1577250A128A157D07103E26
:101DAE000F3983120313A0002008A2002208A000FE
:101DBE002008F00021080A128A15AF250800F50147
:101DCE0075087207840073080318730A83120313CD
:101DDE00FF000A128A1103200A128A15003A03190B
:101DEE00080075087207840073080318730A8312BB
:101DFE000313FF000A128A1103200A128A150A120F
:101E0E008A15C8250A128A150130F4007408F507E0
:101E1E00E72EFA007A08223E840083170008F200AB
:101E2E00840A0008F3007A08203E84000008F400BB
:101E3E00840A0008F5007408FF3EF60075080318C2
:101E4E00013EFF3EF70073087706031D302F720820
:101E5E007606031D342F0130352F0030F800F901BE
:101E6E007808F0007908F100080083120313A3002C
:101E7E007D080A128A15F6250A128A158312031393
:101E8E00A00003300310A00DFF3E031D492F0310C9
:101E9E00200D2307A1007D080A128A1577250A1244
:101EAE008A15831203132107A200220884008317C8
:101EBE008001800A7D08A0002008F7002308203E3C
:101ECE000A128A119522080083120313A5007C08BA
:101EDE000A128A15F6250A128A1583120313A00018
:101EEE0003300310A00DFF3E031D782F0310200DAD
:101EFE002507A1007C080A128A1577250A128A1571
:101F0E00831203132107A200220884008317000303
:101F1E00031D932F0130942F0030A300A40123083A
:101F2E00FC002408FD00080083120313A5007C08A2
:101F3E000A128A15F6250A128A1583120313A000B7
:101F4E0003300310A00DFF3E031DA82F0310200D1C
:101F5E002507A1007C080A128A1577250A128A1510
:101F6E00831203132107A200220884000230831774
:101F7E000006031DC42F0130C52F0030A300A4019D
:101F8E002308FC002408FD000800F90079088400ED
:101F9E0083170008F000840A0008F1007908063E55
:101FAE0084000008F700840A0008F8007708013E54
:101FBE00F20078080318013E003EF3000A128A115F
:101FCE00AA217908063E8400700883178000840ACF
:101FDE00710880007908023E8400FF308007840F6C
:101FEE0000080318000AFF00FF307F0780008403FB
:021FFE000800D9
:04400E00AAFFBCFF4A
:00000001FF
